{
  "contractName": "SimpleStorage",
  "abi": [
    {
      "constant": true,
      "inputs": [],
      "name": "voteNo",
      "outputs": [
        {
          "name": "",
          "type": "uint256"
        }
      ],
      "payable": false,
      "stateMutability": "view",
      "type": "function"
    },
    {
      "constant": true,
      "inputs": [],
      "name": "voteYes",
      "outputs": [
        {
          "name": "",
          "type": "uint256"
        }
      ],
      "payable": false,
      "stateMutability": "view",
      "type": "function"
    },
    {
      "constant": false,
      "inputs": [
        {
          "name": "yes",
          "type": "bool"
        }
      ],
      "name": "vote",
      "outputs": [],
      "payable": false,
      "stateMutability": "nonpayable",
      "type": "function"
    }
  ],
  "bytecode": "0x608060405234801561001057600080fd5b50610147806100206000396000f300608060405260043610610057576000357c0100000000000000000000000000000000000000000000000000000000900463ffffffff16806341c12a701461005c5780634b9f5c981461008757806390cf581c146100b6575b600080fd5b34801561006857600080fd5b506100716100e1565b6040518082815260200191505060405180910390f35b34801561009357600080fd5b506100b46004803603810190808035151590602001909291905050506100e7565b005b3480156100c257600080fd5b506100cb610115565b6040518082815260200191505060405180910390f35b60015481565b801561010157600080815460010191905081905550610112565b600160008154600101919050819055505b50565b600054815600a165627a7a72305820806c082bd4b91218c383e323ed28f2a35f9106e53d64911ca64b76112e47d4470029",
  "source": "pragma solidity ^0.4.24;\n\ncontract SimpleStorage {\n  uint public voteYes;\n  uint public voteNo;\n\n  function vote(bool yes) public{\n    if(yes)\n      ++voteYes;\n    else\n      ++voteNo;\n  }\n}\n",
  "sourcePath": "/Users/biancas/ds-ethereum/contracts/SimpleStorage.sol",
  "compiler": {
    "name": "solc",
    "version": "0.4.24+commit.e67f0147.Emscripten.clang"
  },
  "schemaVersion": "2.0.1",
  "updatedAt": "2018-10-17T09:26:57.490Z"
}